:100000000C945D000C9485000C9485000C94850084
:100010000C9485000C9485000C9485000C9485004C
:100020000C9485000C9485000C9485000C9485003C
:100030000C9485000C9485000C9485000C9485002C
:100040000C94BE040C9485000C94E6070C94AB074A
:100050000C9485000C9485000C9485000C9485000C
:100060000C9485000C94850000000007000201003C
:100070000003040600000000000000000000000073
:10008000250028002B0000000000240027002A0083
:10009000040404040404040402020202020203032E
:1000A0000303030301020408102040800102040836
:1000B00010200102040810201D0B11241FBECFEFD9
:1000C000D8E0DEBFCDBF11E0A0E0B1E0E0EEF8E1A6
:1000D00002C005900D92A836B107D9F723E0A8E633
:1000E000B1E001C01D92AA3BB207E1F710E0CDE5F7
:1000F000D0E004C02197FE010E94680CCC35D107E6
:10010000C9F70E9420080C94C30B0C9400000895BA
:1001100090E0FC01E859FF4F2491FC01EC55FF4FA2
:100120003491FC01E057FF4FE491EE2309F43CC009
:10013000222339F1233091F038F42130A9F0223014
:1001400001F584B58F7D12C0263091F02730A1F0E3
:100150002430B9F4809180008F7D03C080918000AD
:100160008F77809380000DC084B58F7784BD09C0E0
:100170008091B0008F7703C08091B0008F7D809315
:10018000B000F0E0EE0FFF1FE458FF4FA591B491CF
:100190009FB7F894611104C08C913095382302C048
:1001A000EC913E2B3C939FBF0895789484B5826078
:1001B00084BD84B5816084BD85B5826085BD85B50B
:1001C000816085BDEEE6F0E0808181608083E1E8BA
:1001D000F0E01082808182608083808181608083F2
:1001E000E0E8F0E0808181608083E1EBF0E08081F5
:1001F00084608083E0EBF0E0808181608083EAE7C7
:10020000F0E080818460808380818260808380814F
:10021000816080838081806880831092C10008950E
:100220000F931F93CF93DF93209169012F5F322F9C
:1002300037703093690120FF02C020E801C020E040
:1002400031FD2064347009F02062205FFC01EC0174
:10025000239600E011E06485662331F070E0C80168
:100260000E94390C6F5F01C060E06187322F369FBA
:10027000030E30E0311D1124311102C0168202C07C
:1002800031503683662311F0615061873196CE1765
:10029000DF0709F7DF91CF911F910F91089580E952
:1002A00091E00895219A08950F931F93CF93DF93C0
:1002B000CDB7DEB762970FB6F894DEBF0FBECDBFE5
:1002C0008C01F901DC011C968C917A8369835C8333
:1002D0004B835E834D8390819D8791819E87928120
:1002E0009F87813029F4CE0101960E94100106C03B
:1002F0001C861B861A86198618861F8283E0888BC7
:100300001A8A198AD801ED91FC910484F585E02DB3
:10031000BE016F5F7F4FC801099562960FB6F894D2
:10032000DEBF0FBECDBFDF91CF911F910F9108951A
:100330000F931F93CF93DF93CDB7DEB762970FB6BE
:10034000F894DEBF0FBECDBF8C01F901DC011C9615
:100350008C917A8369835C834B835E834D83908128
:100360009D8791819E8792819F87813029F4CE015C
:1003700001960E94100106C01C861B861A861986EB
:1003800018861F82188A1A8A198AD801ED91FC9161
:100390000484F585E02DBE016F5F7F4FC80109958C
:1003A00062960FB6F894DEBF0FBECDBFDF91CF913E
:1003B0001F910F91089580E090E00895FC018585DC
:1003C00096850895CF93DF9300D000D000D0CDB7AD
:1003D000DEB7AB011C821D821E82DC01ED91FC9117
:1003E0000190F081E02D19821A821B829E012F5FFD
:1003F0003F4FBE016C5F7F4F099526960FB6F8946C
:10040000DEBF0FBECDBFDF91CF910895EEE8F1E0E2
:10041000108211821282339682E0E63FF807C1F71C
:10042000809119030C9407063FB7F89480916F01EF
:1004300090917001A0917101B091720126B5A89BB5
:1004400005C02F3F19F00196A11DB11D3FBFBA2F66
:10045000A92F982F8827820F911DA11DB11DBC01C6
:10046000CD0142E0660F771F881F991F4A95D1F78B
:100470000895CF92DF92EF92FF92CF93DF936B01BB
:100480007C010E941402EB01C114D104E104F104C7
:1004900079F00E9414026C1B7D0B683E7340A0F340
:1004A00081E0C81AD108E108F108C851DC4FECCF4F
:1004B000DF91CF91FF90EF90DF90CF9008954F9212
:1004C0005F926F927F928F92AF92BF92CF92DF92A4
:1004D000EF920F931F93CF93DF933C01EB010E94A8
:1004E0001402F30127853089621B730B6A30710592
:1004F000B0F3F894E881F98175B1726065B16D7FF0
:1005000065B9CA848F812C2D281B822F2F83BF842D
:100510004A805B801D850C85DE841F5F0F5FD3944E
:100520009E813885A984EB844181D20120E0C32FCC
:10053000522F322F3181442788943111380F08F41B
:100540003FEF8195889410FD430F4795889411FDE6
:10055000430F4795889412FD430F4795889413FDE8
:10056000430F4795889414FD430F4795889415FDD4
:10057000430F4795889416FD430F4795889417FDC0
:10058000430F47958894232F1111242F8C0D422F50
:10059000002C75B900C000C047FF65B93081222723
:1005A000889400C0002C65B93111390F00C0002CAF
:1005B00075B900C000C046FF65B908F43FEF9195DA
:1005C000889400C0002C65B900FD230F00C0002CEA
:1005D00075B900C000C045FF65B92795889401FD35
:1005E000230F00C0002C65B92795889400C0002C0B
:1005F00075B900C000C044FF65B902FD230F2795FF
:10060000889400C0002C65B903FD230F00C0002CA6
:1006100075B900C000C043FF65B92795889404FDF3
:10062000230F00C0002C65B92795889400C0002CCA
:1006300075B900C000C042FF65B905FD230F2795BD
:10064000889400C0002C65B906FD230F00C0002C63
:1006500075B900C000C041FF65B92795889407FDB2
:10066000230F00C0002C65B92795889400C0002C8A
:1006700075B900C000C040FF65B9432F0111422F7A
:100680009A0D00C0002C65B900C000C0002C75B9DF
:1006900000C000C047FF65B932812227889400C09E
:1006A000002C65B931113C0F00C0002C75B900C099
:1006B00000C046FF65B908F43FEFEB0DF11D00C027
:1006C000002C65B9D0FC230F00C0002C75B900C008
:1006D00000C045FF65B927958894D1FC230F00C061
:1006E000002C65B92795889400C0002C75B900C00E
:1006F00000C044FF65B9D2FC230F2795889400C041
:10070000002C65B9D3FC230F00C0002C75B900C0C4
:1007100000C043FF65B927958894D4FC230F00C01F
:10072000002C65B92795889400C0002C75B900C0CD
:1007300000C042FF65B9D5FC230F2795889400C0FF
:10074000002C65B9D6FC230F00C0002C75B900C081
:1007500000C041FF65B927958894D7FC230F00C0DE
:10076000002C65B92795889400C0002C75B900C08D
:1007700000C040FF65B9432FD110422FC19500C082
:10078000002C65B9CE0D00C000C075B900C000C016
:1007900047FF65B931812227889400C0002C65B9D4
:1007A0003111380F00C0002C75B900C000C046FFE1
:1007B00065B908F43FEF8195889400C0002C65B9B5
:1007C00010FD230F00C0002C75B900C000C045FF0C
:1007D00065B92795889411FD230F00C0002C65B9D9
:1007E0002795889400C0002C75B900C000C044FF54
:1007F00065B912FD230F2795889400C0002C65B9B8
:1008000013FD230F00C0002C75B900C000C043FFCA
:1008100065B92795889414FD230F00C0002C65B995
:100820002795889400C0002C75B900C000C042FF15
:1008300065B915FD230F2795889400C0002C65B974
:1008400016FD230F00C0002C75B900C000C041FF89
:1008500065B92795889417FD230F00C0002C65B952
:100860002795889400C0002C75B900C000C040FFD7
:1008700065B9432F1111422F8C0D00C0002C65B9B2
:10088000119709F086CE20EE31E0D2010E944D0C86
:10089000DC01CB01F4E0B695A79597958795FA957D
:1008A000D1F720E030E0B901EAE94E9E040C611D69
:1008B0005E9E600D711D1124650D711D860F971FC1
:1008C000A11DB11D893E43E09407A105B10508F4BF
:1008D00034C0885E9340A109B10942E0B695A7955E
:1008E000979587954A95D1F747E0849F080E211D7B
:1008F000949F200D311D1124290F311D6091680135
:1009000070E0860F971F820F931F40916B015091EB
:100910006C0160916D0170916E01292F3327420F98
:10092000531F611D711D40936B0150936C016093C7
:100930006D0170936E018093680178940E94140297
:10094000F301708B6787DF91CF911F910F91EF902B
:10095000DF90CF90BF90AF908F907F906F905F901F
:100960004F9008952FB7F89460916B0170916C01CE
:1009700080916D0190916E012FBF08951F920F928B
:100980000FB60F9211242F933F938F939F93AF93A2
:10099000BF9380916B0190916C01A0916D01B0911A
:1009A0006E0130916A0123E0230F2D3720F4019668
:1009B000A11DB11D05C026E8230F0296A11DB11D82
:1009C00020936A0180936B0190936C01A0936D0159
:1009D000B0936E0180916F0190917001A0917101AF
:1009E000B09172010196A11DB11D80936F0190938A
:1009F0007001A0937101B0937201BF91AF919F916B
:100A00008F913F912F910F900FBE0F901F901895CF
:100A1000CF92DF92EF92FF920F931F93CF93DF93CA
:100A20006C01EB017B01E40EF51E00E010E0CE1539
:100A3000DF0561F06991D601ED91FC910190F081A3
:100A4000E02DC6010995080F191FF1CFC801DF91EC
:100A5000CF911F910F91FF90EF90DF90CF9008956D
:100A60000F931F93CF93DF93FC01A685B7858D016C
:100A7000005C1F4FE8018881998101968F73992747
:100A8000AD014E5B5F4FEA01288139812817390794
:100A9000D1F3E80128813981A20FB31F6C93A68599
:100AA000B785A05CBF4F11969C938E93A689B7899A
:100AB0002C9181E090E0078C02C0880F991F0A9466
:100AC000E2F7822B8C9381E081A30488F589E02DE5
:100AD00080818064808381E090E0DF91CF911F91DD
:100AE0000F910895FC0181A1882329F0A489B5897B
:100AF0008C9186FFFBCF11A20895FC01A485B585DA
:100B0000FD01E05CFF4F208131813296808191812F
:100B10002817390779F080819181A80FB91F8C912E
:100B2000208131812F5F3F4F2F7333273183208303
:100B300090E008958FEF9FEF0895DC011C96ED91F2
:100B4000FC911D97DF01A05CBF4F2D913C91119747
:100B500012968D919C9111972817390739F08D9134
:100B60009C91E80FF91F808190E008958FEF9FEF2F
:100B70000895FC0124853585F901E05CFF4F8081F3
:100B80009181329620813181821B930B8F7399273B
:100B9000089587EF92E00C94B9050F931F930E947C
:100BA000B2046093FF02709300038093010390935B
:100BB0000203E091F702F091F8020084F185E02D44
:100BC00087EF92E0099597FF1FC00E94B204009141
:100BD000FF02109100032091010330910203DC0118
:100BE000CB01801B910BA20BB30B0091FB02109168
:100BF000FC022091FD023091FE0280179107A207AE
:100C0000B307B8F28FEF9FEF1F910F9108953F92B6
:100C10004F925F926F927F928F929F92AF92BF920C
:100C2000CF92DF92EF92FF920F931F93CF93DF93B8
:100C300000D01F92CDB7DEB7F82E80911C039091A3
:100C40001D03A0911E03B0911F03892B8A2B8B2BB0
:100C5000E9F00E9414020091B6031091B7032091AD
:100C6000B8033091B903DC01CB01801B910BA20BBF
:100C7000B30B00911C0310911D0320911E033091B2
:100C80001F0380179107A207B307B8F20E9414024E
:100C90006093B6037093B7038093B8039093B9033E
:100CA000E0912403F0912503309759F040912003FF
:100CB0005091210360912203709123038F2D099598
:100CC000F82E00912603109127034F2C512C612CF4
:100CD000712C0115110509F45FC0D8011C96EC9028
:100CE0001C9780911A0390911B038436910510F490
:100CF0001C961C92D801ED91FC91A280B3801982C0
:100D00001A821B82F11014C0F80145855685628154
:100D100073819E012F5F3F4FC801F5010995D801EE
:100D20001C96EC921C9714960D911C911597D1CF9F
:100D3000F8013696CE0101966C01480199E0890EC2
:100D4000911C2191222309F132803320F1F0822F6E
:100D500090E0A0E0B0E09C01AD012F5F3F4F4F4F0E
:100D60005F4FC301B2010E94290C9B01AC01832D8E
:100D700090E0A0E0B0E0BC01CD016F5F7F4F8F4FEE
:100D80009F4F0E94290CD6018C93BFEFCB1ADB0A30
:100D9000E815F905B1F6B8CF8091B4039091B50389
:100DA0008C010F5F1F4F1093B5030093B403499755
:100DB0009CF10E94B2044B015C0188EE93E0089F15
:100DC000B001099F700D189F700D1124072E000CA3
:100DD000880B990BC090B003D090B103E090B203A0
:100DE000F090B303A50194012C193D094E095F0948
:100DF0000E94F80B30931B0320931A031092B50343
:100E00001092B4030E94B2046093B0037093B103D4
:100E10008093B2039093B3030F900F900F90DF91E4
:100E2000CF911F910F91FF90EF90DF90CF90BF90E7
:100E3000AF909F908F907F906F905F904F903F907A
:100E4000089590E0FC01EC55FF4F2491FC01E05720
:100E5000FF4F8491882399F090E0880F991FFC013F
:100E6000EA57FF4FA591B491FC01E458FF4F8591DB
:100E700094918FB7F894EC91E22BEC938FBF089587
:100E8000CF92DF92EF92FF92CF930E94CD05FC01AB
:100E900097FD11C08D32910591F0C0970A9778F0B7
:100EA000E091F702F091F8020680F781E02D87EFDC
:100EB00092E00995EACF60E070E0CB0146C0C12C1A
:100EC000D12C7601C0E0E130F10501F1ED32F10500
:100ED000E1F0CF01C0970A97C8F4AAE0B0E0A701FB
:100EE00096010E94E50B6F01FF0FEE08FF08DC0181
:100EF000CB018C0D9D1DAE1DBF1D6C017D0120E33E
:100F0000C21AD108E108F10801C0C1E0E091F7027E
:100F1000F091F8020680F781E02D87EF92E00995C5
:100F20000E94CD05FC01C0970A9768F2E130F105F7
:100F300051F2CC2341F066277727CB016C197D094C
:100F40008E099F0902C0C701B601CF91FF90EF90B3
:100F5000DF90CF9008951F920F920FB60F92112439
:100F60002F933F938F939F93EF93FF932091680369
:100F70003091690380916A0390916B0328173907B8
:100F800031F48091C1008F7D8093C10014C0E09145
:100F90006A03F0916B03E85DFC4F208180916A0346
:100FA00090916B0301968F73992790936B038093B5
:100FB0006A032093C600FF91EF919F918F913F911B
:100FC0002F910F900FBE0F901F9018951F920F92A8
:100FD0000FB60F9211242F934F935F938F939F938C
:100FE000EF93FF938091C00082FD1CC02091C6004A
:100FF0008091AC039091AD034091AE035091AF034B
:1010000001968F7399274817590771F0E091AC0347
:10101000F091AD03E459FC4F20839093AD0380938E
:10102000AC0302C08091C600FF91EF919F918F9118
:101030005F914F912F910F900FBE0F901F901895B9
:10104000CF93DF93CDB7DEB72A970FB6F894DEBF04
:101050000FBECDBF0E94D50068EB7BE080E090E042
:101060000E94390280918601811145C01092780159
:10107000109277018FEF80937B0180937C018093A6
:101080007D0180937E0180937F018093800181E0C8
:1010900080938101109283011092820110927A0153
:1010A000109279018091260390912703892B31F4C6
:1010B00085E791E09093270380932603E0917301E5
:1010C000F0917401309721F085E791E09583848356
:1010D00085E791E0909374018093730110928501EC
:1010E0001092840182E291E09093760180937501E1
:1010F00081E080938601E0917501F0917601048092
:10110000F581E02D85E791E009958EE891E09093D7
:1011100078018093770188E790E090938301809332
:101120008201E0917501F09176010284F385E02D52
:1011300085E791E00995009701F19C0140E050E0BE
:1011400060E472E48FE090E00E94C60B80911C0383
:1011500090911D03A0911E03B0911F038217930766
:10116000A407B50710F4DA01C90180931C0390931A
:101170001D03A0931E03B0931F038FEF80937B0189
:1011800080EB80937C0180EF80937D0186E48093E7
:101190001903E0910B03F0910C0381E090E09C01B6
:1011A0000090170302C0220F331F0A94E2F7208336
:1011B000E0910703F09108031082E0910903F09198
:1011C0000A032FEC208310921803E0910D03F09195
:1011D0000E0340819C010090130302C0220F331FB5
:1011E0000A94E2F7242B2083E0910D03F0910E0383
:1011F00040819C010090140302C0220F331F0A9407
:10120000E2F7242B2083E0910D03F0910E0340813F
:101210009C010090150302C0220F331F0A94E2F7CD
:10122000242B2083E0910D03F0910E032081009088
:10123000160302C0880F991F0A94E2F78095822353
:1012400080838EE00E94210760E08EE00E9488008B
:10125000F0E4EF2EF1E0FF2E20E331E03A83298322
:10126000E981FA8110813296FA83E983812F0E9405
:10127000210761E0812F0E94880029813A81E216CE
:10128000F30671F7E2E08E2E912CA12CB12C87EFA2
:1012900092E00E94B905181619060CF08CC00E9445
:1012A00040072B013C010E9440076B017C0187EF46
:1012B00092E00E947D050A9751F7C60132E043167D
:1012C000510431F1B4F44114510471F14A944528A8
:1012D000F1F6F601E050FF4F31E03083C601880F90
:1012E000991FDC01AC5BBE4FFC01E05DFE4F6C91D1
:1012F0002EC0E3E04E16510471F1F4E04F16510494
:1013000031F604E411E020E3E22E21E0F22E45C0A4
:10131000F601E050FF4F608121E062276083C60143
:10132000880F991FFC0111C0F601E050FF4F108299
:101330009601220F331FF901EC5BFE4F61E08081C3
:101340009181892B09F060E0F901E05DFE4F808119
:101350000E9488009CCF8130910549F08230910530
:1013600051F0892B09F093CF1092F60290CF41E013
:101370004093F6028CCF8091F60251E0852780934E
:10138000F602811184CF0E94060281CF0E9488005C
:1013900026E531E020173107B1F3F80121913191B1
:1013A0008F01F7018081F2E0EF0EF11C61E0232B49
:1013B00069F360E0EBCF8091F602882309F4EFC077
:1013C0000E94B2046115710521F0882799270E94B7
:1013D000BA0B0E946C0B24E130E040E050E00E9428
:1013E000C60B9B01AC01265F3F4F4F4F5F4F2D83D4
:1013F0003E834F8358870E946C0BA50194010E9485
:10140000C60BDC01CB010496A11DB11D9A8789870B
:101410000E946C0B24E130E040E050E00E94C60BDB
:10142000DC01CB010196A11DB11D9C838B83212C76
:10143000312C4B815C81241635060CF0B0C00E9423
:101440006C0BA50194010E94C60B662E412C512CF9
:101450000FEF10E0662019F01A83098302C05A8248
:1014600049829EE8E92E91E0F92EC12CD12CC601CB
:1014700068E770E00E94390C29813A81260F371FF6
:101480003327F901EE0FFF1F25353105B4F4CF01E5
:10149000820F931F69857A850E94390C462F5DEF74
:1014A0005203C001539F900D112481509F4F6985B5
:1014B0007A850E94390C712C2FC02A3A3105BCF470
:1014C000CF01820F931F69857A850E94390C762E91
:1014D0004DEF4203C001439F900D112481509F4F57
:1014E00069857A850E94390C462F60E015C05DEF52
:1014F0005203C001539F900D112481509F4F698565
:101500007A850E94390C762ECF01820F931F698550
:101510007A850E94390C40E0F70170824183628332
:10152000D39423E0E20EF11CC11438E7D30609F08E
:101530009ECF809119030E9407060E94B2046B019E
:101540007C0161E070E080E090E00E9439028091CF
:1015500019030E9407060E94B204DC01CB018C191A
:101560009D09AE09BF092D813E814F8158858217A3
:101570009307A407B50728F33FEF431A530A015016
:101580001109411441E0540631F00F3F5FEF150798
:1015900009F060CF5DCF5FEF251A350A4ACF0E9470
:1015A000C90575CEE9E1F3E08FEF808312821182E5
:1015B000148613868FEF9FEFDC0187839087A187C6
:1015C000B2870895E7EFF2E01382128288EE93E08B
:1015D000A0E0B0E084839583A683B7838CE591E097
:1015E000918380838CE693E09587848788E293E0FB
:1015F0009787868785EC90E0918B808B84EC90E0D8
:10160000938B828B80EC90E0958B848B81EC90E0C7
:10161000978B868B82EC90E0918F808F86EC90E0A8
:10162000938F828F84E0848F83E0858F87E0868F1D
:1016300085E0878F81E080A308950E94D20A0C94F0
:10164000E20A8F929F92AF92BF92CF92DF92EF9277
:10165000FF92CF93DF93EC01688179818A819B812E
:10166000611571058105910521F464E279ED8BE541
:1016700097E02DE133EF41E050E00E94C60B4901B5
:101680005A019B01AC01A7EAB1E40E94E50B6B0192
:101690007C01ACEEB4EFA50194010E94F30BDC01D8
:1016A000CB018C0D9D1DAE1DBF1DB7FF03C0019763
:1016B000A109B04888839983AA83BB83BC01CD016B
:1016C0009F77DF91CF91FF90EF90DF90CF90BF9009
:1016D000AF909F908F9008958F929F92AF92BF92FC
:1016E000CF92DF92EF92FF9260910A0170910B010D
:1016F00080910C0190910D01611571058105910595
:1017000021F464E279ED8BE597E02DE133EF41E0E0
:1017100050E00E94C60B49015A019B01AC01A7EAA7
:10172000B1E40E94E50B6B017C01ACEEB4EFA501C6
:1017300094010E94F30BDC01CB018C0D9D1DAE1DAD
:10174000BF1DB7FF03C00197A109B04880930A01EC
:1017500090930B01A0930C01B0930D01BC01CD013E
:101760009F77FF90EF90DF90CF90BF90AF909F90CA
:101770008F90089560930A0170930B0180930C0180
:1017800090930D010895F8940C946E0C052E97FB20
:101790001EF400940E94DD0B57FD07D00E94F80B49
:1017A00007FC03D04EF40C94DD0B5095409530951A
:1017B00021953F4F4F4F5F4F0895909580957095BD
:1017C00061957F4F8F4F9F4F08950E941A0CA59FE0
:1017D000900DB49F900DA49F800D911D112408952C
:1017E000B7FF0C94E50B0E94E50B821B930B089549
:1017F000A1E21A2EAA1BBB1BFD010DC0AA1FBB1F15
:10180000EE1FFF1FA217B307E407F50720F0A21B86
:10181000B30BE40BF50B661F771F881F991F1A94F3
:1018200069F760957095809590959B01AC01BD011D
:10183000CF010895A29FB001B39FC001A39F700D77
:10184000811D1124911DB29F700D811D1124911DC8
:101850000895DB018F939F930E94E50BBF91AF9199
:10186000A29F800D911DA39F900DB29F900D1124FA
:10187000089597FB072E16F4009407D077FD09D042
:101880000E94540C07FC05D03EF4909581959F4F23
:101890000895709561957F4F08950E941A0CB7FFC7
:1018A0000895821B930B0895AA1BBB1B51E107C02F
:1018B000AA1FBB1FA617B70710F0A61BB70B881FE0
:1018C000991F5A95A9F780959095BC01CD0108956F
:1018D000EE0FFF1F0590F491E02D0994F894FFCFCF
:1018E00001010101010101010000010000000000EF
:1018F0000000870087008700E201DE01DB010000B5
:101900000000980154015201E201DE014F015F0223
:1019100007000600050004000300020008000C0098
:101920000E000000000000000000000000000000A9
:101930000000000001000000000000003005080564
:08194000B9057D059D05720546
:00000001FF
