:100000000C945D000C9485000C9485000C94850084
:100010000C9485000C9485000C9485000C9485004C
:100020000C9485000C9485000C9485000C9485003C
:100030000C9485000C9485000C9485000C9485002C
:100040000C94F8050C9485000C94CF090C94940939
:100050000C9485000C9485000C9485000C9485000C
:100060000C9485000C94850000000007000201003C
:100070000003040600000000000000000000000073
:10008000250028002B0000000000240027002A0083
:10009000040404040404040402020202020203032E
:1000A0000303030301020408102040800102040836
:1000B00010200102040810207C0C11241FBECFEF79
:1000C000D8E0DEBFCDBF11E0A0E0B1E0EEE9FBE19A
:1000D00002C005900D92A836B107D9F723E0A8E633
:1000E000B1E001C01D92AF3BB207E1F710E0CDE5F2
:1000F000D0E004C02197FE010E94C70DCC35D10786
:10010000C9F70E94090A0C94220D0C94000008956E
:10011000CF92DF92EF92FF920F931F93CF93DF93D3
:100120006C01EB017B01E40EF51E00E010E0CE1542
:10013000DF0561F06991D601ED91FC910190F081AC
:10014000E02DC6010995080F191FF1CFC801DF91F5
:10015000CF911F910F91FF90EF90DF90CF90089576
:1001600090E0FC01E859FF4F2491FC01EC55FF4F52
:100170003491FC01E057FF4FE491EE2309F43CC0B9
:10018000222339F1233091F038F42130A9F02230C4
:1001900001F584B58F7D12C0263091F02730A1F093
:1001A0002430B9F4809180008F7D03C0809180005D
:1001B0008F77809380000DC084B58F7784BD09C090
:1001C0008091B0008F7703C08091B0008F7D8093C5
:1001D000B000F0E0EE0FFF1FE458FF4FA591B4917F
:1001E0009FB7F894611104C08C913095382302C0F8
:1001F000EC913E2B3C939FBF0895789484B5826028
:1002000084BD84B5816084BD85B5826085BD85B5BA
:10021000816085BDEEE6F0E0808181608083E1E869
:10022000F0E01082808182608083808181608083A1
:10023000E0E8F0E0808181608083E1EBF0E08081A4
:1002400084608083E0EBF0E0808181608083EAE776
:10025000F0E08081846080838081826080838081FF
:10026000816080838081806880831092C1000895BE
:100270000F931F93CF93DF93209169012F5F322F4C
:1002800037703093690120FF02C020E801C020E0F0
:1002900031FD2064347009F02062205FFC01EC0124
:1002A000239600E011E06485662331F070E0C80118
:1002B0000E94980D6F5F01C060E06187322F369F0A
:1002C000030E30E0311D1124311102C0168202C02C
:1002D00031503683662311F0615061873196CE1715
:1002E000DF0709F7DF91CF911F910F91089580E902
:1002F00091E00895219A08950F931F93CF93DF9370
:10030000CDB7DEB762970FB6F894DEBF0FBECDBF94
:100310008C01F901DC011C968C917A8369835C83E2
:100320004B835E834D8390819D8791819E879281CF
:100330009F87813029F4CE0101960E94380106C0C2
:100340001C861B861A86198618861F8283E0888B76
:100350001A8A198AD801ED91FC910484F585E02D63
:10036000BE016F5F7F4FC801099562960FB6F89482
:10037000DEBF0FBECDBFDF91CF911F910F910895CA
:100380000F931F93CF93DF93CDB7DEB762970FB66E
:10039000F894DEBF0FBECDBF8C01F901DC011C96C5
:1003A0008C917A8369835C834B835E834D839081D8
:1003B0009D8791819E8792819F87813029F4CE010C
:1003C00001960E94380106C01C861B861A86198673
:1003D00018861F82188A1A8A198AD801ED91FC9111
:1003E0000484F585E02DBE016F5F7F4FC80109953C
:1003F00062960FB6F894DEBF0FBECDBFDF91CF91EE
:100400001F910F91089580E090E00895FC0185858B
:1004100096850895CF93DF9300D000D000D0CDB75C
:10042000DEB7AB011C821D821E82DC01ED91FC91C6
:100430000190F081E02D19821A821B829E012F5FAC
:100440003F4FBE016C5F7F4F099526960FB6F8941B
:10045000DEBF0FBECDBFDF91CF910895EEE8F1E092
:10046000108211821282339682E0E63FF807C1F7CC
:1004700080911E030C945B083FB7F89480916F0144
:1004800090917001A0917101B091720126B5A89B65
:1004900005C02F3F19F00196A11DB11D3FBFBA2F16
:1004A000A92F982F8827820F911DA11DB11DBC0176
:1004B000CD0142E0660F771F881F991F4A95D1F73B
:1004C0000895CF92DF92EF92FF92CF93DF936B016B
:1004D0007C010E943C02EB01C114D104E104F1044F
:1004E00079F00E943C026C1B7D0B683E7340A0F3C8
:1004F00081E0C81AD108E108F108C851DC4FECCFFF
:10050000DF91CF91FF90EF90DF90CF9008950F9300
:100510001F93CF93DF93C4E4D1E000E311E029916E
:100520003991F80180810E5F1F4F61E0232B09F0A4
:1005300060E00E94B00064EF71E080E090E00E9413
:100540006102F1E0C635DF0751F7DF91CF911F91CE
:100550000F910C942E024F925F926F927F928F9226
:10056000AF92BF92CF92DF92EF920F931F93CF93F0
:10057000DF933C01EB010E943C02F30127853089A7
:10058000621B730B6A307105B0F3F894E881F9814E
:1005900075B1726065B16D7F65B9CA848F812C2D8C
:1005A000281B822F2F83BF844A805B801D850C858A
:1005B000DE841F5F0F5FD3949E813885A984EB840E
:1005C0004181D20120E0C32F522F322F31814427A5
:1005D00088943111380F08F43FEF8195889410FD0D
:1005E000430F4795889411FD430F4795889412FD5A
:1005F000430F4795889413FD430F4795889414FD46
:10060000430F4795889415FD430F4795889416FD31
:10061000430F4795889417FD430F47958894232FE0
:100620001111242F8C0D422F002C75B900C000C071
:1006300047FF65B930812227889400C0002C65B936
:100640003111390F00C0002C75B900C000C046FF41
:1006500065B908F43FEF9195889400C0002C65B906
:1006600000FD230F00C0002C75B900C000C045FF7D
:1006700065B92795889401FD230F00C0002C65B94A
:100680002795889400C0002C75B900C000C044FFB5
:1006900065B902FD230F2795889400C0002C65B929
:1006A00003FD230F00C0002C75B900C000C043FF3C
:1006B00065B92795889404FD230F00C0002C65B907
:1006C0002795889400C0002C75B900C000C042FF77
:1006D00065B905FD230F2795889400C0002C65B9E6
:1006E00006FD230F00C0002C75B900C000C041FFFB
:1006F00065B92795889407FD230F00C0002C65B9C4
:100700002795889400C0002C75B900C000C040FF38
:1007100065B9432F0111422F9A0D00C0002C65B915
:1007200000C000C0002C75B900C000C047FF65B90B
:1007300032812227889400C0002C65B931113C0F0A
:1007400000C0002C75B900C000C046FF65B908F4B0
:100750003FEFEB0DF11D00C0002C65B9D0FC230F5D
:1007600000C0002C75B900C000C045FF65B92795D1
:100770008894D1FC230F00C0002C65B9279588947C
:1007800000C0002C75B900C000C044FF65B9D2FCA0
:10079000230F2795889400C0002C65B9D3FC230F44
:1007A00000C0002C75B900C000C043FF65B9279593
:1007B0008894D4FC230F00C0002C65B92795889439
:1007C00000C0002C75B900C000C042FF65B9D5FC5F
:1007D000230F2795889400C0002C65B9D6FC230F01
:1007E00000C0002C75B900C000C041FF65B9279555
:1007F0008894D7FC230F00C0002C65B927958894F6
:1008000000C0002C75B900C000C040FF65B9432F7F
:10081000D110422FC19500C0002C65B9CE0D00C08B
:1008200000C075B900C000C047FF65B931812227FB
:10083000889400C0002C65B93111380F00C0002C1D
:1008400075B900C000C046FF65B908F43FEF819557
:10085000889400C0002C65B910FD230F00C0002C47
:1008600075B900C000C045FF65B92795889411FD92
:10087000230F00C0002C65B92795889400C0002C78
:1008800075B900C000C044FF65B912FD230F27955C
:10089000889400C0002C65B913FD230F00C0002C04
:1008A00075B900C000C043FF65B92795889414FD51
:1008B000230F00C0002C65B92795889400C0002C38
:1008C00075B900C000C042FF65B915FD230F27951B
:1008D000889400C0002C65B916FD230F00C0002CC1
:1008E00075B900C000C041FF65B92795889417FD10
:1008F000230F00C0002C65B92795889400C0002CF8
:1009000075B900C000C040FF65B9432F1111422FD7
:100910008C0D00C0002C65B9119709F086CE20EE31
:1009200031E0D2010E94AC0DDC01CB01F4E0B695C0
:10093000A79597958795FA95D1F720E030E0B90112
:10094000EAE94E9E040C611D5E9E600D711D11242E
:10095000650D711D860F971FA11DB11D893E43E0D6
:100960009407A105B10508F434C0885E9340A1093D
:10097000B10942E0B695A795979587954A95D1F725
:1009800047E0849F080E211D949F200D311D1124E6
:10099000290F311D6091680170E0860F971F820F4B
:1009A000931F40916B0150916C0160916D017091AA
:1009B0006E01292F3327420F531F611D711D409374
:1009C0006B0150936C0160936D0170936E01809385
:1009D000680178940E943C02F301708B6787DF9175
:1009E000CF911F910F91EF90DF90CF90BF90AF907C
:1009F0008F907F906F905F904F9008952FB7F894ED
:100A000060916B0170916C0180916D0190916E010C
:100A10002FBF08952F923F924F925F926F927F92D5
:100A20008F929F92AF92BF92CF92DF92EF92FF92FE
:100A30000F931F93CF93DF9300D000D01F92CDB7B9
:100A4000DEB77B836A835D834C83212C312C2C01A0
:100A5000990F660877084A815B81241635060CF0E9
:100A6000AFC00E94CB0C22E030E040E050E00E949A
:100A7000250D6983E12CF12C0FEF10E0898188238B
:100A800011F0480101C047019EE8C92E91E0D92E1E
:100A9000A12CB12CC50168E770E00E94980D9B0164
:100AA000280D391D3327F901EE0FFF1F25353105BC
:100AB000B4F4CF01820F931F6C817D810E94980D49
:100AC000E62F4DEF4203C001439F900D112481504A
:100AD0009F4F6C817D810E94980D40E02FC02A3A83
:100AE0003105BCF4CF01820F931F6C817D810E9480
:100AF000980D462F5DEF5203C001539F900D1124B6
:100B000081509F4F6C817D810E94980DE62F60E09F
:100B100015C04DEF4203C001439F900D1124815039
:100B20009F4F6C817D810E94980D462FCF01820FCF
:100B3000931F6C817D810E94980DE0E0D6014C935B
:100B40001196EC93119712966C93B394E3E0CE0E4A
:100B5000D11CA114F8E7BF0609F09CCF80911E03B9
:100B60000E945B080E94FE044B015C0161E070E0A2
:100B700080E090E00E94610280911E030E945B0869
:100B80000E94FE04DC01CB0188199909AA09BB095E
:100B900084159505A605B70548F34FEFE41AF40A46
:100BA00001501109E11451E0F50631F00F3F5FEFFC
:100BB000150709F063CF60CF8FEF281A380A4BCFA3
:100BC0000F900F900F900F900F90DF91CF911F918A
:100BD0000F91FF90EF90DF90CF90BF90AF909F90DC
:100BE0008F907F906F905F904F903F902F900895DF
:100BF0001F920F920FB60F9211242F933F938F9352
:100C00009F93AF93BF9380916B0190916C01A091E2
:100C10006D01B0916E0130916A0123E0230F2D37F1
:100C200020F40196A11DB11D05C026E8230F0296F0
:100C3000A11DB11D20936A0180936B0190936C01FB
:100C4000A0936D01B0936E0180916F01909170013E
:100C5000A0917101B09172010196A11DB11D809307
:100C60006F0190937001A0937101B0937201BF91D5
:100C7000AF919F918F913F912F910F900FBE0F9049
:100C80001F901895E091FC02F091FD020190F08117
:100C9000E02D682F8CEF92E009940F931F93CF9370
:100CA000DF93FC01A685B7858D01005C1F4FE8012D
:100CB0008881998101968F739927AD014E5B5F4FB3
:100CC000EA012881398128173907D1F3E801288101
:100CD0003981A20FB31F6C93A685B785A05CBF4F67
:100CE00011969C938E93A689B7892C9181E090E010
:100CF000078C02C0880F991F0A94E2F7822B8C930D
:100D000081E081A30488F589E02D8081806480835F
:100D100081E090E0DF91CF911F910F910895FC0148
:100D200081A1882329F0A489B5898C9186FFFBCF06
:100D300011A20895FC01A485B585FD01E05CFF4F7B
:100D4000208131813296808191812817390779F08D
:100D500080819181A80FB91F8C91208131812F5FF3
:100D60003F4F2F7333273183208390E008958FEF17
:100D70009FEF0895DC011C96ED91FC911D97DF011A
:100D8000A05CBF4F2D913C91119712968D919C9133
:100D900011972817390739F08D919C91E80FF91FA9
:100DA000808190E008958FEF9FEF0895FC012485E6
:100DB0003585F901E05CFF4F808191813296208179
:100DC0003181821B930B8F73992708950F931F9383
:100DD0000E94FE046093040370930503809306034E
:100DE00090930703E091FC02F091FD020084F185ED
:100DF000E02D8CEF92E0099597FF1FC00E94FE0442
:100E0000009104031091050320910603309107031C
:100E1000DC01CB01801B910BA20BB30B00910003F3
:100E20001091010320910203309103038017910771
:100E3000A207B307B8F28FEF9FEF1F910F910895AC
:100E4000CF92DF92EF92FF92CF930E94E606FC01D1
:100E500097FD11C08D32910591F0C0970A9778F0F7
:100E6000E091FC02F091FD020680F781E02D8CEF0D
:100E700092E00995EACF60E070E0CB0146C0C12C5A
:100E8000D12C7601C0E0E130F10501F1ED32F10540
:100E9000E1F0CF01C0970A97C8F4AAE0B0E0A7013B
:100EA00096010E94440D6F01FF0FEE08FF08DC0160
:100EB000CB018C0D9D1DAE1DBF1D6C017D0120E37E
:100EC000C21AD108E108F10801C0C1E0E091FC02BA
:100ED000F091FD020680F781E02D8CEF92E00995FC
:100EE0000E94E606FC01C0970A9768F2E130F1051E
:100EF00051F2CC2341F066277727CB016C197D098D
:100F00008E099F0902C0C701B601CF91FF90EF90F3
:100F1000DF90CF9008958F929F92AF92BF92EF9201
:100F2000FF920F931F93CF93DF93CDB7DEB7A197B7
:100F30000FB6F894DEBF0FBECDBF162F042F19A237
:100F4000423008F40AE07E0121E2E20EF11C802E1C
:100F5000912CA12CB12C612FA50194010E94570D59
:100F6000029F1019112481E0E81AF1081A3014F4D4
:100F7000105D01C0195CF7011083122F732FCA0195
:100F8000232B242B252B39F7E114F10499F0019040
:100F90000020E9F73197AF014E195F09E091FC029B
:100FA000F091FD020280F381E02DB7018CEF92E019
:100FB000099502C080E090E0A1960FB6F894DEBFDC
:100FC0000FBECDBFDF91CF911F910F91FF90EF909A
:100FD000BF90AF909F908F900895CF92DF92EF9245
:100FE000FF92CF938CEF92E00E94D606892B09F4F2
:100FF0005CC0C1E08CEF92E00E94D606892B09F418
:1010000054C00E9420077093FB026093FA020E9472
:1010100020077093F9026093F8028CEF92E00E942F
:101020009A060A9739F7C093F702C090FA02D09057
:10103000FB020D2C000CEE08FF08F7FE0CC08DE241
:101040000E94420666277727CB016C197D098E091D
:101050009F094AE003C04AE0C701B6010E948B071E
:101060008CE20E944206C090F802D090F9020D2C4A
:10107000000CEE08FF08F7FE0CC08DE20E9442064D
:1010800066277727CB016C197D098E099F094AE0F5
:1010900003C04AE0C701B6010E948B078DE00E94A1
:1010A00042068AE00E944206A5CFCF91FF90EF90C2
:1010B000DF90CF9008953F924F925F926F927F9210
:1010C0008F929F92AF92BF92CF92DF92EF92FF9258
:1010D0000F931F93CF93DF9300D01F92CDB7DEB74E
:1010E000F82E8091210390912203A0912303B091C7
:1010F0002403892B8A2B8B2BE9F00E943C02009160
:10110000BB031091BC032091BD033091BE03DC01F1
:10111000CB01801B910BA20BB30B0091210310910B
:101120002203209123033091240380179107A20703
:10113000B307B8F20E943C026093BB037093BC03F8
:101140008093BD039093BE03E0912903F0912A039D
:10115000309759F040912503509126036091270361
:10116000709128038F2D0995F82E00912B03109173
:101170002C034F2C512C612C712C0115110509F4F5
:101180005FC0D8011C96EC901C9780911F03909132
:1011900020038436910510F41C961C92D801ED9121
:1011A000FC91A280B38019821A821B82F11014C0B4
:1011B000F80145855685628173819E012F5F3F4FFF
:1011C000C801F5010995D8011C96EC921C9714965C
:1011D0000D911C911597D1CFF8013696CE0101964D
:1011E0006C01480199E0890E911C2191222309F19B
:1011F00032803320F1F0822F90E0A0E0B0E09C013B
:10120000AD012F5F3F4F4F4F5F4FC301B2010E94AF
:10121000880D9B01AC01832D90E0A0E0B0E0BC0103
:10122000CD016F5F7F4F8F4F9F4F0E94880DD6017A
:101230008C93BFEFCB1ADB0AE815F905B1F6B8CFEE
:101240008091B9039091BA038C010F5F1F4F1093E7
:10125000BA030093B90349979CF10E94FE044B0125
:101260005C0188EE93E0089FB001099F700D189F04
:10127000700D1124072E000C880B990BC090B5033C
:10128000D090B603E090B703F090B803A5019401A5
:101290002C193D094E095F090E94570D3093200318
:1012A00020931F031092BA031092B9030E94FE0408
:1012B0006093B5037093B6038093B7039093B8031C
:1012C0000F900F900F90DF91CF911F910F91FF9092
:1012D000EF90DF90CF90BF90AF909F908F907F90D6
:1012E0006F905F904F903F90089590E0FC01EC5517
:1012F000FF4F2491FC01E057FF4F8491882399F020
:1013000090E0880F991FFC01EA57FF4FA591B49117
:10131000FC01E458FF4F859194918FB7F894EC91BC
:10132000E22BEC938FBF08951F920F920FB60F928E
:1013300011242F933F938F939F93EF93FF932091CB
:101340006D0330916E0380916F03909170032817A5
:10135000390731F48091C1008F7D8093C10014C0A2
:10136000E0916F03F0917003E35DFC4F2081809169
:101370006F039091700301968F7399279093700378
:1013800080936F032093C600FF91EF919F918F91FF
:101390003F912F910F900FBE0F901F9018951F92A5
:1013A0000F920FB60F9211242F934F935F938F9349
:1013B0009F93EF93FF938091C00082FD1CC020910A
:1013C000C6008091B1039091B2034091B303509154
:1013D000B40301968F7399274817590771F0E0916C
:1013E000B103F091B203EF58FC4F20839093B20306
:1013F0008093B10302C08091C600FF91EF919F914D
:101400008F915F914F912F910F900FBE0F901F9072
:101410001895CF93DF9300D000D0CDB7DEB70E94F0
:10142000FD0068EB7BE080E090E00E94610280912B
:101430008601811145C010927801109277018FEFDB
:1014400080937B0180937C0180937D0180937E015A
:1014500080937F018093800181E0809381011092CD
:1014600083011092820110927A0110927901809189
:101470002B0390912C03892B31F485E791E0909315
:101480002C0380932B03E0917301F091740130974A
:1014900021F085E791E09583848385E791E090933F
:1014A000740180937301109285011092840182E28D
:1014B00091E0909376018093750181E0809386019D
:1014C000E0917501F09176010480F581E02D85E7CA
:1014D00091E009958EE891E09093780180937701EF
:1014E00088E790E09093830180938201E0917501F9
:1014F000F09176010284F385E02D85E791E009956E
:10150000009701F19C0140E050E060E472E48FE05C
:1015100090E00E94250D8091210390912203A091DB
:101520002303B091240382179307A407B50710F48F
:10153000DA01C9018093210390932203A09323032E
:10154000B09324038FEF80937B0180EB80937C0129
:1015500080EF80937D018BE480931E03E091100364
:10156000F091110381E090E09C0100901C0302C007
:10157000220F331F0A94E2F72083E0910C03F091CD
:101580000D031082E0910E03F0910F032FEC2083E6
:1015900010921D03E0911203F091130340819C010E
:1015A0000090180302C0220F331F0A94E2F7242B85
:1015B0002083E0911203F091130340819C0100907D
:1015C000190302C0220F331F0A94E2F7242B208351
:1015D000E0911203F091130340819C0100901A03E3
:1015E00002C0220F331F0A94E2F7242B2083E091DC
:1015F0001203F0911303208100901B0302C0880F97
:10160000991F0A94E2F78095822380838EE00E94DE
:10161000750960E08EE00E94B00020E331E03A837B
:101620002983E981FA8110813296FA83E983812F37
:101630000E94750961E0812F0E94B00029813A81E2
:101640002054314071F70E948702332433942224BE
:10165000239454E1C52ED12CE12CF12C8091F7027A
:10166000882309F4AEC08091FA029091FB02823087
:10167000910551F1C4F40097A1F1019709F09FC0C1
:101680008091F8029091F902FC01E050FF4F308206
:10169000880F991FFC01EC5BFE4FDC01A05DBE4F83
:1016A00060818C9135C08430910509F44FC09CF164
:1016B000059709F084C042E050E061E070E082E00C
:1016C00090E00E940A0579C08091F8029091F90299
:1016D000FC01E050FF4F608163256083880F991FF4
:1016E00013C08091F8029091F902FC01E050FF4F85
:1016F0001082880F991FFC01EC5BFE4F61E0208196
:101700003181232B09F060E0FC01E05DFE4F808118
:101710000E94B00054C08091F8029091F90281308B
:10172000910549F08230910549F0892B09F047C0B5
:101730001092F60242C02092F60241C08091F60259
:1017400083258093F60281113AC037C08090F80259
:101750009090F90297FE03C00E94870230C084E493
:10176000A82E81E0B82E00E311E01A821982898147
:101770009A818816990689F061E0F501808191814E
:10178000892B09F060E0F80180810E94B00064EFCD
:1017900071E080E090E00E94610229813A812F5F30
:1017A0003F4F3A83298332E0A30EB11C0E5F1F4FD7
:1017B00049815A8149305105D1F60E942E0210927A
:1017C000F7028091F602882309F448C00E94FE04C3
:1017D0006115710521F0882799270E94190D0E9433
:1017E000CB0C4B015C010E94CB0C2B013C010E94F5
:1017F000CB0C69837A838B839C83C301B20122E083
:1018000030E040E050E00E94250D2B013C0154E007
:10181000450E511C611C711C69817A818B819C81F0
:10182000A70196010E94250D9B01AC012F5F3F4F40
:101830004F4F5F4F29833A834B835C83C501B401CB
:10184000A70196010E94250DDC01CB010A96A11D7E
:10185000B11DA20169817A810E940A050E94ED07EB
:10186000FDCEEEE1F3E08FEF8083128211821486C9
:1018700013868FEF9FEFDC0187839087A187B28764
:101880000895ECEFF2E01382128288EE93E0A0E07C
:10189000B0E084839583A683B7838CE591E0918340
:1018A000808381E793E0958784878DE293E0978733
:1018B000868785EC90E0918B808B84EC90E0938B15
:1018C000828B80EC90E0958B848B81EC90E0978B01
:1018D000868B82EC90E0918F808F86EC90E0938FE6
:1018E000828F84E0848F83E0858F87E0868F85E018
:1018F000878F81E080A308950E94310C0C94410CE5
:101900008F929F92AF92BF92CF92DF92EF92FF920F
:10191000CF93DF93EC01688179818A819B81611586
:1019200071058105910521F464E279ED8BE597E07D
:101930002DE133EF41E050E00E94250D49015A01AD
:101940009B01AC01A7EAB1E40E94440D6B017C014C
:10195000ACEEB4EFA50194010E94520DDC01CB0165
:101960008C0D9D1DAE1DBF1DB7FF03C00197A109C2
:10197000B04888839983AA83BB83BC01CD019F773C
:10198000DF91CF91FF90EF90DF90CF90BF90AF901D
:101990009F908F9008958F929F92AF92BF92CF9217
:1019A000DF92EF92FF9260910A0170910B0180919A
:1019B0000C0190910D01611571058105910521F4CE
:1019C00064E279ED8BE597E02DE133EF41E050E003
:1019D0000E94250D49015A019B01AC01A7EAB1E41F
:1019E0000E94440D6B017C01ACEEB4EFA5019401A3
:1019F0000E94520DDC01CB018C0D9D1DAE1DBF1D43
:101A0000B7FF03C00197A109B04880930A019093E2
:101A10000B01A0930C01B0930D01BC01CD019F7788
:101A2000FF90EF90DF90CF90BF90AF909F908F90FE
:101A3000089560930A0170930B0180930C019093B9
:101A40000D010895F8940C94CD0D052E97FB1EF40E
:101A500000940E943C0D57FD07D00E94570D07FCD3
:101A600003D04EF40C943C0D509540953095219543
:101A70003F4F4F4F5F4F08959095809570956195BA
:101A80007F4F8F4F9F4F08950E94790DA59F900D16
:101A9000B49F900DA49F800D911D11240895B7FF50
:101AA0000C94440D0E94440D821B930B0895A1E2F7
:101AB0001A2EAA1BBB1BFD010DC0AA1FBB1FEE1FC8
:101AC000FF1FA217B307E407F50720F0A21BB30B13
:101AD000E40BF50B661F771F881F991F1A9469F78F
:101AE00060957095809590959B01AC01BD01CF01EB
:101AF0000895A29FB001B39FC001A39F700D811DE7
:101B00001124911DB29F700D811D1124911D089506
:101B1000DB018F939F930E94440DBF91AF91A29FD1
:101B2000800D911DA39F900DB29F900D11240895DB
:101B300097FB072E16F4009407D077FD09D00E947A
:101B4000B30D07FC05D03EF4909581959F4F089505
:101B5000709561957F4F08950E94790DB7FF0895A4
:101B6000821B930B0895AA1BBB1B51E107C0AA1F40
:101B7000BB1FA617B70710F0A61BB70B881F991F2E
:101B80005A95A9F780959095BC01CD010895EE0F67
:0E1B9000FF1F0590F491E02D0994F894FFCF0B
:101B9E00010101010101010100000100000000002E
:101BAE0000008700870087000A0206020302000079
:101BBE000000C0017C017A010A0206027701AB0225
:101BCE0007000600050004000300020008000C00D8
:101BDE000E000000000000000000000000000000E9
:101BEE000000000001000000000000004D0688000B
:081BFE00D6069A06BA068F060E
:00000001FF
